{
  "transactions": [
    {
      "hash": "0x216aa03e10caf005d5bd3e1b8740ee01d9c9ce8437018d55c04f3b699e6916a4",
      "transactionType": "CALL",
      "contractName": null,
      "contractAddress": "0x903c9ad0d7d600554ba35e6255e62b1f144c1a18",
      "function": "addProject(address,string,string)",
      "arguments": [
        "0xD308833dC6e9366D3C75981D6b1d716e32fFC3a8",
        "Amazon Rainforest Restoration",
        "Reforestation efforts in the Amazon rainforest, Brazil"
      ],
      "transaction": {
        "from": "0x9c77c6fafc1eb0821f1de12972ef0199c97c6e45",
        "to": "0x903c9ad0d7d600554ba35e6255e62b1f144c1a18",
        "gas": "0x45c51",
        "value": "0x0",
        "input": "0xd596f2b4000000000000000000000000d308833dc6e9366d3c75981d6b1d716e32ffc3a8000000000000000000000000000000000000000000000000000000000000006000000000000000000000000000000000000000000000000000000000000000a0000000000000000000000000000000000000000000000000000000000000001d416d617a6f6e205261696e666f7265737420526573746f726174696f6e00000000000000000000000000000000000000000000000000000000000000000000365265666f726573746174696f6e206566666f72747320696e2074686520416d617a6f6e207261696e666f726573742c204272617a696c00000000000000000000",
        "nonce": "0x33",
        "chainId": "0xa4b1"
      },
      "additionalContracts": [],
      "isFixedGasLimit": false
    },
    {
      "hash": "0x5373376b1029e4803aec5f53733727e5b2d7fe238f063ef49fff1a0e9e73dddf",
      "transactionType": "CALL",
      "contractName": null,
      "contractAddress": "0x903c9ad0d7d600554ba35e6255e62b1f144c1a18",
      "function": "addProject(address,string,string)",
      "arguments": [
        "0xd051B758D8e4554bd89ACcC0288ad3eBA6238682",
        "Ocean Plastic Removal",
        "Ocean cleanup initiatives in the Pacific Ocean"
      ],
      "transaction": {
        "from": "0x9c77c6fafc1eb0821f1de12972ef0199c97c6e45",
        "to": "0x903c9ad0d7d600554ba35e6255e62b1f144c1a18",
        "gas": "0x45af7",
        "value": "0x0",
        "input": "0xd596f2b4000000000000000000000000d051b758d8e4554bd89accc0288ad3eba6238682000000000000000000000000000000000000000000000000000000000000006000000000000000000000000000000000000000000000000000000000000000a000000000000000000000000000000000000000000000000000000000000000154f6365616e20506c61737469632052656d6f76616c0000000000000000000000000000000000000000000000000000000000000000000000000000000000002e4f6365616e20636c65616e757020696e69746961746976657320696e207468652050616369666963204f6365616e000000000000000000000000000000000000",
        "nonce": "0x34",
        "chainId": "0xa4b1"
      },
      "additionalContracts": [],
      "isFixedGasLimit": false
    },
    {
      "hash": "0x9b4f549c94ec28c0c39f4b41ef43ec0ce8e33f0f84941b975a68d653258fe207",
      "transactionType": "CALL",
      "contractName": null,
      "contractAddress": "0x903c9ad0d7d600554ba35e6255e62b1f144c1a18",
      "function": "addProject(address,string,string)",
      "arguments": [
        "0x15DFE880601a031Ea12B4F63400B36AA50D64993",
        "Solar Power for Villages",
        "Renewable energy projects in rural Kenya"
      ],
      "transaction": {
        "from": "0x9c77c6fafc1eb0821f1de12972ef0199c97c6e45",
        "to": "0x903c9ad0d7d600554ba35e6255e62b1f144c1a18",
        "gas": "0x45afd",
        "value": "0x0",
        "input": "0xd596f2b400000000000000000000000015dfe880601a031ea12b4f63400b36aa50d64993000000000000000000000000000000000000000000000000000000000000006000000000000000000000000000000000000000000000000000000000000000a00000000000000000000000000000000000000000000000000000000000000018536f6c617220506f77657220666f722056696c6c616765730000000000000000000000000000000000000000000000000000000000000000000000000000002852656e657761626c6520656e657267792070726f6a6563747320696e20727572616c204b656e7961000000000000000000000000000000000000000000000000",
        "nonce": "0x35",
        "chainId": "0xa4b1"
      },
      "additionalContracts": [],
      "isFixedGasLimit": false
    },
    {
      "hash": "0xeee2917a2166537a3a9807e03c3df94e7115d588fdf1101852aa6de4d3ecdd53",
      "transactionType": "CALL",
      "contractName": null,
      "contractAddress": "0x903c9ad0d7d600554ba35e6255e62b1f144c1a18",
      "function": "addProject(address,string,string)",
      "arguments": [
        "0x7518530d6a9ae910438C036d43EaA83A0424f4B6",
        "Regenerative Farming Initiative",
        "Sustainable agriculture programs in India"
      ],
      "transaction": {
        "from": "0x9c77c6fafc1eb0821f1de12972ef0199c97c6e45",
        "to": "0x903c9ad0d7d600554ba35e6255e62b1f144c1a18",
        "gas": "0x45b7b",
        "value": "0x0",
        "input": "0xd596f2b40000000000000000000000007518530d6a9ae910438c036d43eaa83a0424f4b6000000000000000000000000000000000000000000000000000000000000006000000000000000000000000000000000000000000000000000000000000000a0000000000000000000000000000000000000000000000000000000000000001f526567656e65726174697665204661726d696e6720496e69746961746976650000000000000000000000000000000000000000000000000000000000000000295375737461696e61626c65206167726963756c747572652070726f6772616d7320696e20496e6469610000000000000000000000000000000000000000000000",
        "nonce": "0x36",
        "chainId": "0xa4b1"
      },
      "additionalContracts": [],
      "isFixedGasLimit": false
    },
    {
      "hash": "0xde5345e20ea8f15d2b7db1ff1760917e82ee13157acf60bb6a573408d02ac6db",
      "transactionType": "CALL",
      "contractName": null,
      "contractAddress": "0x903c9ad0d7d600554ba35e6255e62b1f144c1a18",
      "function": "addProject(address,string,string)",
      "arguments": [
        "0x49FdCb1c1af4566A7bA45Fd9732A31B855D819bC",
        "Coral Reef Restoration",
        "Coral reef conservation in the Great Barrier Reef"
      ],
      "transaction": {
        "from": "0x9c77c6fafc1eb0821f1de12972ef0199c97c6e45",
        "to": "0x903c9ad0d7d600554ba35e6255e62b1f144c1a18",
        "gas": "0x45b18",
        "value": "0x0",
        "input": "0xd596f2b400000000000000000000000049fdcb1c1af4566a7ba45fd9732a31b855d819bc000000000000000000000000000000000000000000000000000000000000006000000000000000000000000000000000000000000000000000000000000000a00000000000000000000000000000000000000000000000000000000000000016436f72616c205265656620526573746f726174696f6e000000000000000000000000000000000000000000000000000000000000000000000000000000000031436f72616c207265656620636f6e736572766174696f6e20696e2074686520477265617420426172726965722052656566000000000000000000000000000000",
        "nonce": "0x37",
        "chainId": "0xa4b1"
      },
      "additionalContracts": [],
      "isFixedGasLimit": false
    },
    {
      "hash": "0x419f37cb9a3c238fb759c15f6ddda9623d97a453f044f37d0e41c42457847c39",
      "transactionType": "CALL",
      "contractName": null,
      "contractAddress": "0x903c9ad0d7d600554ba35e6255e62b1f144c1a18",
      "function": "addProject(address,string,string)",
      "arguments": [
        "0xF0ed6Bb76ba6eA3716B8D336e34Ba9A91065dAcd",
        "Flowra",
        "Open source DeFi protocol for public goods funding"
      ],
      "transaction": {
        "from": "0x9c77c6fafc1eb0821f1de12972ef0199c97c6e45",
        "to": "0x903c9ad0d7d600554ba35e6255e62b1f144c1a18",
        "gas": "0x45a02",
        "value": "0x0",
        "input": "0xd596f2b4000000000000000000000000f0ed6bb76ba6ea3716b8d336e34ba9a91065dacd000000000000000000000000000000000000000000000000000000000000006000000000000000000000000000000000000000000000000000000000000000a00000000000000000000000000000000000000000000000000000000000000006466c6f777261000000000000000000000000000000000000000000000000000000000000000000000000000000000000000000000000000000000000000000324f70656e20736f7572636520446546692070726f746f636f6c20666f72207075626c696320676f6f64732066756e64696e670000000000000000000000000000",
        "nonce": "0x38",
        "chainId": "0xa4b1"
      },
      "additionalContracts": [],
      "isFixedGasLimit": false
    }
  ],
  "receipts": [
    {
      "status": "0x1",
      "cumulativeGasUsed": "0x993d0",
      "logs": [
        {
          "address": "0x903c9ad0d7d600554ba35e6255e62b1f144c1a18",
          "topics": [
            "0x9b1a16f5759af462f42475b44346709ff870c61ab291f62b7c81385c22334e03",
            "0x000000000000000000000000d308833dc6e9366d3c75981d6b1d716e32ffc3a8"
          ],
          "data": "0x0000000000000000000000000000000000000000000000000000000000000020000000000000000000000000000000000000000000000000000000000000001d416d617a6f6e205261696e666f7265737420526573746f726174696f6e000000",
          "blockHash": "0x7cd651d8cbdaceda601b83820527fe381363841c434b823c78beeb5a29c6075e",
          "blockNumber": "0x17bb0cee",
          "blockTimestamp": "0x690f61e5",
          "transactionHash": "0x216aa03e10caf005d5bd3e1b8740ee01d9c9ce8437018d55c04f3b699e6916a4",
          "transactionIndex": "0x5",
          "logIndex": "0x3",
          "removed": false
        }
      ],
      "logsBloom": "0x00000000000000000000000000000000000000000000000000000000000000000000000000000000000000000000000000000000000000000000000000000000000000000000040000000000000000000004000000000000000000000000000000000000000000000000020000000000000000000000000000000000000000000000002000000000000000000000000000000000000000000000008000000000000000000000000000000000000000000000000000000000000000000000000000000000000000000000000000000000000000080000000000022000000000000000000000000000000000000000000000000000000000000000000000002000",
      "type": "0x2",
      "transactionHash": "0x216aa03e10caf005d5bd3e1b8740ee01d9c9ce8437018d55c04f3b699e6916a4",
      "transactionIndex": "0x5",
      "blockHash": "0x7cd651d8cbdaceda601b83820527fe381363841c434b823c78beeb5a29c6075e",
      "blockNumber": "0x17bb0cee",
      "gasUsed": "0x34da3",
      "effectiveGasPrice": "0x989680",
      "from": "0x9c77c6fafc1eb0821f1de12972ef0199c97c6e45",
      "to": "0x903c9ad0d7d600554ba35e6255e62b1f144c1a18",
      "contractAddress": null,
      "gasUsedForL1": "0x91a",
      "l1BlockNumber": "0x16a7aad",
      "timeboosted": false
    },
    {
      "status": "0x1",
      "cumulativeGasUsed": "0x5f156",
      "logs": [
        {
          "address": "0x903c9ad0d7d600554ba35e6255e62b1f144c1a18",
          "topics": [
            "0x9b1a16f5759af462f42475b44346709ff870c61ab291f62b7c81385c22334e03",
            "0x000000000000000000000000d051b758d8e4554bd89accc0288ad3eba6238682"
          ],
          "data": "0x000000000000000000000000000000000000000000000000000000000000002000000000000000000000000000000000000000000000000000000000000000154f6365616e20506c61737469632052656d6f76616c0000000000000000000000",
          "blockHash": "0x8df842cb58f9b253006755a3e6a2580cbc20d2f85b38d64865cb8d1f08dd80e7",
          "blockNumber": "0x17bb0cf9",
          "blockTimestamp": "0x690f61e7",
          "transactionHash": "0x5373376b1029e4803aec5f53733727e5b2d7fe238f063ef49fff1a0e9e73dddf",
          "transactionIndex": "0x2",
          "logIndex": "0x3",
          "removed": false
        }
      ],
      "logsBloom": "0x00000000000000000000000000000000000000000000000000000000000002000000000000000000000000000000000000000000000000000000000000000000000000000000000100000000000000000000000000000000000000000000000000000000000000000000020000000000000000000000000000000000000000000000002000000000000000000000000000000000000000000000008000000000000000000000000000000000000000000000000000000000000000000000000000000000000000000000000000000000000000080000000000020000000000000000000000000000000000001000000000000000000000000000000000002000",
      "type": "0x2",
      "transactionHash": "0x5373376b1029e4803aec5f53733727e5b2d7fe238f063ef49fff1a0e9e73dddf",
      "transactionIndex": "0x2",
      "blockHash": "0x8df842cb58f9b253006755a3e6a2580cbc20d2f85b38d64865cb8d1f08dd80e7",
      "blockNumber": "0x17bb0cf9",
      "gasUsed": "0x3150c",
      "effectiveGasPrice": "0x989680",
      "from": "0x9c77c6fafc1eb0821f1de12972ef0199c97c6e45",
      "to": "0x903c9ad0d7d600554ba35e6255e62b1f144c1a18",
      "contractAddress": null,
      "gasUsedForL1": "0x8cb",
      "l1BlockNumber": "0x16a7aad",
      "timeboosted": false
    },
    {
      "status": "0x1",
      "cumulativeGasUsed": "0x39807",
      "logs": [
        {
          "address": "0x903c9ad0d7d600554ba35e6255e62b1f144c1a18",
          "topics": [
            "0x9b1a16f5759af462f42475b44346709ff870c61ab291f62b7c81385c22334e03",
            "0x00000000000000000000000015dfe880601a031ea12b4f63400b36aa50d64993"
          ],
          "data": "0x00000000000000000000000000000000000000000000000000000000000000200000000000000000000000000000000000000000000000000000000000000018536f6c617220506f77657220666f722056696c6c616765730000000000000000",
          "blockHash": "0xa8891857254239a8bb686b890d2650f44bff7ca2a42aaceae463987f8898c1fd",
          "blockNumber": "0x17bb0d04",
          "blockTimestamp": "0x690f61ea",
          "transactionHash": "0x9b4f549c94ec28c0c39f4b41ef43ec0ce8e33f0f84941b975a68d653258fe207",
          "transactionIndex": "0x2",
          "logIndex": "0x1",
          "removed": false
        }
      ],
      "logsBloom": "0x00000000000000000000000000000100000000000000000000000000000000000000000000000000000000000000000000000000000000000000000000000000000000000000000000000000000000000000000000000000000000000000000000000000000000000000020000000000000000000000000000000000000000000000002000000000000000000000000000000000000000000000008000000000000000000000000040000000000000000000000000001000000000000000000000000000000000000000000000000000000000080000000000020000000000000000000000000000000000000000000000000000000000000000000000002000",
      "type": "0x2",
      "transactionHash": "0x9b4f549c94ec28c0c39f4b41ef43ec0ce8e33f0f84941b975a68d653258fe207",
      "transactionIndex": "0x2",
      "blockHash": "0xa8891857254239a8bb686b890d2650f44bff7ca2a42aaceae463987f8898c1fd",
      "blockNumber": "0x17bb0d04",
      "gasUsed": "0x314fe",
      "effectiveGasPrice": "0x989680",
      "from": "0x9c77c6fafc1eb0821f1de12972ef0199c97c6e45",
      "to": "0x903c9ad0d7d600554ba35e6255e62b1f144c1a18",
      "contractAddress": null,
      "gasUsedForL1": "0x8e1",
      "l1BlockNumber": "0x16a7aae",
      "timeboosted": false
    },
    {
      "status": "0x1",
      "cumulativeGasUsed": "0x5a9aa",
      "logs": [
        {
          "address": "0x903c9ad0d7d600554ba35e6255e62b1f144c1a18",
          "topics": [
            "0x9b1a16f5759af462f42475b44346709ff870c61ab291f62b7c81385c22334e03",
            "0x0000000000000000000000007518530d6a9ae910438c036d43eaa83a0424f4b6"
          ],
          "data": "0x0000000000000000000000000000000000000000000000000000000000000020000000000000000000000000000000000000000000000000000000000000001f526567656e65726174697665204661726d696e6720496e697469617469766500",
          "blockHash": "0x7c3da16d3c49105cf7b7127ea295f2d83a93f3447a0bd89256fc699d70338556",
          "blockNumber": "0x17bb0d0e",
          "blockTimestamp": "0x690f61ed",
          "transactionHash": "0xeee2917a2166537a3a9807e03c3df94e7115d588fdf1101852aa6de4d3ecdd53",
          "transactionIndex": "0x3",
          "logIndex": "0x1",
          "removed": false
        }
      ],
      "logsBloom": "0x00000000000000000000000000000000000000000000000000000000000000000000000000000000000000000000000000000000000000000000000000000000000000000000000000000000000000000000000000000000000000000000000000000000000000000000020000000000000000000000000000000000100000000000002000000000000000000000000000020000000000010000008000000000000000000000000000000000000000000000000000000000000000000000000000000000000000000000000000000000000000080000000000020000000000000000000000000000000000000000000000000000000000000000000000002000",
      "type": "0x2",
      "transactionHash": "0xeee2917a2166537a3a9807e03c3df94e7115d588fdf1101852aa6de4d3ecdd53",
      "transactionIndex": "0x3",
      "blockHash": "0x7c3da16d3c49105cf7b7127ea295f2d83a93f3447a0bd89256fc699d70338556",
      "blockNumber": "0x17bb0d0e",
      "gasUsed": "0x31541",
      "effectiveGasPrice": "0x989680",
      "from": "0x9c77c6fafc1eb0821f1de12972ef0199c97c6e45",
      "to": "0x903c9ad0d7d600554ba35e6255e62b1f144c1a18",
      "contractAddress": null,
      "gasUsedForL1": "0x8c4",
      "l1BlockNumber": "0x16a7aae",
      "timeboosted": false
    },
    {
      "status": "0x1",
      "cumulativeGasUsed": "0xdaa44",
      "logs": [
        {
          "address": "0x903c9ad0d7d600554ba35e6255e62b1f144c1a18",
          "topics": [
            "0x9b1a16f5759af462f42475b44346709ff870c61ab291f62b7c81385c22334e03",
            "0x00000000000000000000000049fdcb1c1af4566a7ba45fd9732a31b855d819bc"
          ],
          "data": "0x00000000000000000000000000000000000000000000000000000000000000200000000000000000000000000000000000000000000000000000000000000016436f72616c205265656620526573746f726174696f6e00000000000000000000",
          "blockHash": "0xadd1fafb7f3b96a251588ebdf2e6ffbd42234a70f9008c02f50fda82365f83cb",
          "blockNumber": "0x17bb0d18",
          "blockTimestamp": "0x690f61ef",
          "transactionHash": "0xde5345e20ea8f15d2b7db1ff1760917e82ee13157acf60bb6a573408d02ac6db",
          "transactionIndex": "0x5",
          "logIndex": "0x4",
          "removed": false
        }
      ],
      "logsBloom": "0x00000000000000000000000000000000000000000000000000000000000000000000000000000000000000000000000000000000000000000000000000000002000000000000040000000000000000000000000000000000000000000000000000000000000000000000020000000000000000000000000000000000000000000000002000000000000000000000000000000000000000000000008000000000000000000000000000000000000000000000000000000000000200000000000000000000000000000000000000000000000000080000000000020000000000000000000000000000000000000000000000000000000000000000000000002000",
      "type": "0x2",
      "transactionHash": "0xde5345e20ea8f15d2b7db1ff1760917e82ee13157acf60bb6a573408d02ac6db",
      "transactionIndex": "0x5",
      "blockHash": "0xadd1fafb7f3b96a251588ebdf2e6ffbd42234a70f9008c02f50fda82365f83cb",
      "blockNumber": "0x17bb0d18",
      "gasUsed": "0x31552",
      "effectiveGasPrice": "0x989680",
      "from": "0x9c77c6fafc1eb0821f1de12972ef0199c97c6e45",
      "to": "0x903c9ad0d7d600554ba35e6255e62b1f144c1a18",
      "contractAddress": null,
      "gasUsedForL1": "0x8e1",
      "l1BlockNumber": "0x16a7aae",
      "timeboosted": false
    },
    {
      "status": "0x1",
      "cumulativeGasUsed": "0x4166eb",
      "logs": [
        {
          "address": "0x903c9ad0d7d600554ba35e6255e62b1f144c1a18",
          "topics": [
            "0x9b1a16f5759af462f42475b44346709ff870c61ab291f62b7c81385c22334e03",
            "0x000000000000000000000000f0ed6bb76ba6ea3716b8d336e34ba9a91065dacd"
          ],
          "data": "0x00000000000000000000000000000000000000000000000000000000000000200000000000000000000000000000000000000000000000000000000000000006466c6f7772610000000000000000000000000000000000000000000000000000",
          "blockHash": "0x6e77c084d14002f8a95fc98eb149c01e42b05ea4d766986f4324c6cbf9e2364c",
          "blockNumber": "0x17bb0d22",
          "blockTimestamp": "0x690f61f2",
          "transactionHash": "0x419f37cb9a3c238fb759c15f6ddda9623d97a453f044f37d0e41c42457847c39",
          "transactionIndex": "0x6",
          "logIndex": "0x3a",
          "removed": false
        }
      ],
      "logsBloom": "0x00000000000000000000000000040000000000000000000000000000000000000000000000000000000000000000000000000000000000000000000000000000000000000000000000000000000000000000000000000000000000000000000000000000000000000000020000000000000000000000000000000000000000000000002000000000000000000000000000000000000000000000008000000400000000000000000000000000000000000000000000000000000000004000000000000000000000000000000000000000000000080000000000020000000000000000000000000000000000000000000000000000000000000000000000002000",
      "type": "0x2",
      "transactionHash": "0x419f37cb9a3c238fb759c15f6ddda9623d97a453f044f37d0e41c42457847c39",
      "transactionIndex": "0x6",
      "blockHash": "0x6e77c084d14002f8a95fc98eb149c01e42b05ea4d766986f4324c6cbf9e2364c",
      "blockNumber": "0x17bb0d22",
      "gasUsed": "0x3149e",
      "effectiveGasPrice": "0x989680",
      "from": "0x9c77c6fafc1eb0821f1de12972ef0199c97c6e45",
      "to": "0x903c9ad0d7d600554ba35e6255e62b1f144c1a18",
      "contractAddress": null,
      "gasUsedForL1": "0x8e1",
      "l1BlockNumber": "0x16a7aae",
      "timeboosted": false
    }
  ],
  "libraries": [],
  "pending": [],
  "returns": {},
  "timestamp": 1762615796,
  "chain": 42161,
  "commit": "99a6308"
}