{
  "transactions": [
    {
      "hash": "0x237a10e7499d3035a54b158b8cc3cbf181a57c03829695fde22847251288d15b",
      "transactionType": "CALL",
      "contractName": null,
      "contractAddress": "0xa757f81cc0309a4ef70e43d221c3292d572b1bb1",
      "function": "addProject(address,string,string)",
      "arguments": [
        "0xD308833dC6e9366D3C75981D6b1d716e32fFC3a8",
        "Amazon Rainforest Restoration",
        "Reforestation efforts in the Amazon rainforest, Brazil"
      ],
      "transaction": {
        "from": "0x9c77c6fafc1eb0821f1de12972ef0199c97c6e45",
        "to": "0xa757f81cc0309a4ef70e43d221c3292d572b1bb1",
        "gas": "0x45771",
        "value": "0x0",
        "input": "0xd596f2b4000000000000000000000000d308833dc6e9366d3c75981d6b1d716e32ffc3a8000000000000000000000000000000000000000000000000000000000000006000000000000000000000000000000000000000000000000000000000000000a0000000000000000000000000000000000000000000000000000000000000001d416d617a6f6e205261696e666f7265737420526573746f726174696f6e00000000000000000000000000000000000000000000000000000000000000000000365265666f726573746174696f6e206566666f72747320696e2074686520416d617a6f6e207261696e666f726573742c204272617a696c00000000000000000000",
        "nonce": "0x1d",
        "chainId": "0xa4b1"
      },
      "additionalContracts": [],
      "isFixedGasLimit": false
    },
    {
      "hash": "0x56ff1c1342b32b877d2a41c8164dff095287bb377a7c40d70e1eac5735f70716",
      "transactionType": "CALL",
      "contractName": null,
      "contractAddress": "0xa757f81cc0309a4ef70e43d221c3292d572b1bb1",
      "function": "addProject(address,string,string)",
      "arguments": [
        "0xd051B758D8e4554bd89ACcC0288ad3eBA6238682",
        "Ocean Plastic Removal",
        "Ocean cleanup initiatives in the Pacific Ocean"
      ],
      "transaction": {
        "from": "0x9c77c6fafc1eb0821f1de12972ef0199c97c6e45",
        "to": "0xa757f81cc0309a4ef70e43d221c3292d572b1bb1",
        "gas": "0x45646",
        "value": "0x0",
        "input": "0xd596f2b4000000000000000000000000d051b758d8e4554bd89accc0288ad3eba6238682000000000000000000000000000000000000000000000000000000000000006000000000000000000000000000000000000000000000000000000000000000a000000000000000000000000000000000000000000000000000000000000000154f6365616e20506c61737469632052656d6f76616c0000000000000000000000000000000000000000000000000000000000000000000000000000000000002e4f6365616e20636c65616e757020696e69746961746976657320696e207468652050616369666963204f6365616e000000000000000000000000000000000000",
        "nonce": "0x1e",
        "chainId": "0xa4b1"
      },
      "additionalContracts": [],
      "isFixedGasLimit": false
    },
    {
      "hash": "0x2f5e6ae34a61b212983e988dbc418bc2d9e93452c4e23ea502ae05f298aab13a",
      "transactionType": "CALL",
      "contractName": null,
      "contractAddress": "0xa757f81cc0309a4ef70e43d221c3292d572b1bb1",
      "function": "addProject(address,string,string)",
      "arguments": [
        "0x15DFE880601a031Ea12B4F63400B36AA50D64993",
        "Solar Power for Villages",
        "Renewable energy projects in rural Kenya"
      ],
      "transaction": {
        "from": "0x9c77c6fafc1eb0821f1de12972ef0199c97c6e45",
        "to": "0xa757f81cc0309a4ef70e43d221c3292d572b1bb1",
        "gas": "0x4564f",
        "value": "0x0",
        "input": "0xd596f2b400000000000000000000000015dfe880601a031ea12b4f63400b36aa50d64993000000000000000000000000000000000000000000000000000000000000006000000000000000000000000000000000000000000000000000000000000000a00000000000000000000000000000000000000000000000000000000000000018536f6c617220506f77657220666f722056696c6c616765730000000000000000000000000000000000000000000000000000000000000000000000000000002852656e657761626c6520656e657267792070726f6a6563747320696e20727572616c204b656e7961000000000000000000000000000000000000000000000000",
        "nonce": "0x1f",
        "chainId": "0xa4b1"
      },
      "additionalContracts": [],
      "isFixedGasLimit": false
    },
    {
      "hash": "0xf40f451fdc7132de9dbd52d4b817191eda6728f987d98aca19282aba1cace424",
      "transactionType": "CALL",
      "contractName": null,
      "contractAddress": "0xa757f81cc0309a4ef70e43d221c3292d572b1bb1",
      "function": "addProject(address,string,string)",
      "arguments": [
        "0x7518530d6a9ae910438C036d43EaA83A0424f4B6",
        "Regenerative Farming Initiative",
        "Sustainable agriculture programs in India"
      ],
      "transaction": {
        "from": "0x9c77c6fafc1eb0821f1de12972ef0199c97c6e45",
        "to": "0xa757f81cc0309a4ef70e43d221c3292d572b1bb1",
        "gas": "0x456a3",
        "value": "0x0",
        "input": "0xd596f2b40000000000000000000000007518530d6a9ae910438c036d43eaa83a0424f4b6000000000000000000000000000000000000000000000000000000000000006000000000000000000000000000000000000000000000000000000000000000a0000000000000000000000000000000000000000000000000000000000000001f526567656e65726174697665204661726d696e6720496e69746961746976650000000000000000000000000000000000000000000000000000000000000000295375737461696e61626c65206167726963756c747572652070726f6772616d7320696e20496e6469610000000000000000000000000000000000000000000000",
        "nonce": "0x20",
        "chainId": "0xa4b1"
      },
      "additionalContracts": [],
      "isFixedGasLimit": false
    },
    {
      "hash": "0x57e392e9f69a82de78a3e4912ae74421aa1a75e15a2966adf37e3c4eccd32488",
      "transactionType": "CALL",
      "contractName": null,
      "contractAddress": "0xa757f81cc0309a4ef70e43d221c3292d572b1bb1",
      "function": "addProject(address,string,string)",
      "arguments": [
        "0x49FdCb1c1af4566A7bA45Fd9732A31B855D819bC",
        "Coral Reef Restoration",
        "Coral reef conservation in the Great Barrier Reef"
      ],
      "transaction": {
        "from": "0x9c77c6fafc1eb0821f1de12972ef0199c97c6e45",
        "to": "0xa757f81cc0309a4ef70e43d221c3292d572b1bb1",
        "gas": "0x4565c",
        "value": "0x0",
        "input": "0xd596f2b400000000000000000000000049fdcb1c1af4566a7ba45fd9732a31b855d819bc000000000000000000000000000000000000000000000000000000000000006000000000000000000000000000000000000000000000000000000000000000a00000000000000000000000000000000000000000000000000000000000000016436f72616c205265656620526573746f726174696f6e000000000000000000000000000000000000000000000000000000000000000000000000000000000031436f72616c207265656620636f6e736572766174696f6e20696e2074686520477265617420426172726965722052656566000000000000000000000000000000",
        "nonce": "0x21",
        "chainId": "0xa4b1"
      },
      "additionalContracts": [],
      "isFixedGasLimit": false
    },
    {
      "hash": "0xd00068dd3e2263f03d0c723ee16c46b3f66ae3d07f33ef558efce84f54bf8056",
      "transactionType": "CALL",
      "contractName": null,
      "contractAddress": "0xa757f81cc0309a4ef70e43d221c3292d572b1bb1",
      "function": "addProject(address,string,string)",
      "arguments": [
        "0xF0ed6Bb76ba6eA3716B8D336e34Ba9A91065dAcd",
        "Flowra",
        "Open source DeFi protocol for public goods funding"
      ],
      "transaction": {
        "from": "0x9c77c6fafc1eb0821f1de12972ef0199c97c6e45",
        "to": "0xa757f81cc0309a4ef70e43d221c3292d572b1bb1",
        "gas": "0x45568",
        "value": "0x0",
        "input": "0xd596f2b4000000000000000000000000f0ed6bb76ba6ea3716b8d336e34ba9a91065dacd000000000000000000000000000000000000000000000000000000000000006000000000000000000000000000000000000000000000000000000000000000a00000000000000000000000000000000000000000000000000000000000000006466c6f777261000000000000000000000000000000000000000000000000000000000000000000000000000000000000000000000000000000000000000000324f70656e20736f7572636520446546692070726f746f636f6c20666f72207075626c696320676f6f64732066756e64696e670000000000000000000000000000",
        "nonce": "0x22",
        "chainId": "0xa4b1"
      },
      "additionalContracts": [],
      "isFixedGasLimit": false
    }
  ],
  "receipts": [
    {
      "status": "0x1",
      "cumulativeGasUsed": "0x11efdc",
      "logs": [
        {
          "address": "0xa757f81cc0309a4ef70e43d221c3292d572b1bb1",
          "topics": [
            "0x9b1a16f5759af462f42475b44346709ff870c61ab291f62b7c81385c22334e03",
            "0x000000000000000000000000d308833dc6e9366d3c75981d6b1d716e32ffc3a8"
          ],
          "data": "0x0000000000000000000000000000000000000000000000000000000000000020000000000000000000000000000000000000000000000000000000000000001d416d617a6f6e205261696e666f7265737420526573746f726174696f6e000000",
          "blockHash": "0x5a683c29454839ae473aa1582658ec0a4c271e1ef3334e66fe21ac00452c5af9",
          "blockNumber": "0x17b8f074",
          "blockTimestamp": "0x690edafb",
          "transactionHash": "0x237a10e7499d3035a54b158b8cc3cbf181a57c03829695fde22847251288d15b",
          "transactionIndex": "0x8",
          "logIndex": "0x16",
          "removed": false
        }
      ],
      "logsBloom": "0x00000000000000000000000000000000000000000000000000000000000000000000000000000000000000000000000000000000000000000000000000000000000000000000040000000000000000000004000000000000000000000000000000000000000000000000020000000000000000000000000000000000020000000000002000000000000000000000000000000000000000000000000000000000000000000000000000000000000000000000000000000000000000002000000000000000000000000000000000000000000000080000000000002000000001000000000000000000000000000000000000000000000000000000000000000000",
      "type": "0x2",
      "transactionHash": "0x237a10e7499d3035a54b158b8cc3cbf181a57c03829695fde22847251288d15b",
      "transactionIndex": "0x8",
      "blockHash": "0x5a683c29454839ae473aa1582658ec0a4c271e1ef3334e66fe21ac00452c5af9",
      "blockNumber": "0x17b8f074",
      "gasUsed": "0x34a5b",
      "effectiveGasPrice": "0x989680",
      "from": "0x9c77c6fafc1eb0821f1de12972ef0199c97c6e45",
      "to": "0xa757f81cc0309a4ef70e43d221c3292d572b1bb1",
      "contractAddress": null,
      "gasUsedForL1": "0x5d2",
      "l1BlockNumber": "0x16a6f85",
      "timeboosted": false
    },
    {
      "status": "0x1",
      "cumulativeGasUsed": "0x9417e",
      "logs": [
        {
          "address": "0xa757f81cc0309a4ef70e43d221c3292d572b1bb1",
          "topics": [
            "0x9b1a16f5759af462f42475b44346709ff870c61ab291f62b7c81385c22334e03",
            "0x000000000000000000000000d051b758d8e4554bd89accc0288ad3eba6238682"
          ],
          "data": "0x000000000000000000000000000000000000000000000000000000000000002000000000000000000000000000000000000000000000000000000000000000154f6365616e20506c61737469632052656d6f76616c0000000000000000000000",
          "blockHash": "0xdb3d6e4bfa1190b4191dd556f670e5dee1ebd00ee39679d2adfa8456668d50d1",
          "blockNumber": "0x17b8f07e",
          "blockTimestamp": "0x690edafd",
          "transactionHash": "0x56ff1c1342b32b877d2a41c8164dff095287bb377a7c40d70e1eac5735f70716",
          "transactionIndex": "0x6",
          "logIndex": "0x7",
          "removed": false
        }
      ],
      "logsBloom": "0x00000000000000000000000000000000000000000000000000000000000002000000000000000000000000000000000000000000000000000000000000000000000000000000000100000000000000000000000000000000000000000000000000000000000000000000020000000000000000000000000000000000020000000000002000000000000000000000000000000000000000000000000000000000000000000000000000000000000000000000000000000000000000002000000000000000000000000000000000000000000000080000000000000000000001000000000000000000000000001000000000000000000000000000000000000000",
      "type": "0x2",
      "transactionHash": "0x56ff1c1342b32b877d2a41c8164dff095287bb377a7c40d70e1eac5735f70716",
      "transactionIndex": "0x6",
      "blockHash": "0xdb3d6e4bfa1190b4191dd556f670e5dee1ebd00ee39679d2adfa8456668d50d1",
      "blockNumber": "0x17b8f07e",
      "gasUsed": "0x31226",
      "effectiveGasPrice": "0x989680",
      "from": "0x9c77c6fafc1eb0821f1de12972ef0199c97c6e45",
      "to": "0xa757f81cc0309a4ef70e43d221c3292d572b1bb1",
      "contractAddress": null,
      "gasUsedForL1": "0x5e5",
      "l1BlockNumber": "0x16a6f85",
      "timeboosted": false
    },
    {
      "status": "0x1",
      "cumulativeGasUsed": "0x9c14b",
      "logs": [
        {
          "address": "0xa757f81cc0309a4ef70e43d221c3292d572b1bb1",
          "topics": [
            "0x9b1a16f5759af462f42475b44346709ff870c61ab291f62b7c81385c22334e03",
            "0x00000000000000000000000015dfe880601a031ea12b4f63400b36aa50d64993"
          ],
          "data": "0x00000000000000000000000000000000000000000000000000000000000000200000000000000000000000000000000000000000000000000000000000000018536f6c617220506f77657220666f722056696c6c616765730000000000000000",
          "blockHash": "0xa5e7f7568f4e8b910f9b8a44eea3deacdc55d4ef44758ce1b1b256286d6f41a0",
          "blockNumber": "0x17b8f088",
          "blockTimestamp": "0x690edb00",
          "transactionHash": "0x2f5e6ae34a61b212983e988dbc418bc2d9e93452c4e23ea502ae05f298aab13a",
          "transactionIndex": "0x5",
          "logIndex": "0x6",
          "removed": false
        }
      ],
      "logsBloom": "0x00000000000000000000000000000100000000000000000000000000000000000000000000000000000000000000000000000000000000000000000000000000000000000000000000000000000000000000000000000000000000000000000000000000000000000000020000000000000000000000000000000000020000000000002000000000000000000000000000000000000000000000000000000000000000000000000040000000000000000000000000001000000000002000000000000000000000000000000000000000000000080000000000000000000001000000000000000000000000000000000000000000000000000000000000000000",
      "type": "0x2",
      "transactionHash": "0x2f5e6ae34a61b212983e988dbc418bc2d9e93452c4e23ea502ae05f298aab13a",
      "transactionIndex": "0x5",
      "blockHash": "0xa5e7f7568f4e8b910f9b8a44eea3deacdc55d4ef44758ce1b1b256286d6f41a0",
      "blockNumber": "0x17b8f088",
      "gasUsed": "0x31202",
      "effectiveGasPrice": "0x989680",
      "from": "0x9c77c6fafc1eb0821f1de12972ef0199c97c6e45",
      "to": "0xa757f81cc0309a4ef70e43d221c3292d572b1bb1",
      "contractAddress": null,
      "gasUsedForL1": "0x5e5",
      "l1BlockNumber": "0x16a6f86",
      "timeboosted": false
    },
    {
      "status": "0x1",
      "cumulativeGasUsed": "0x95251",
      "logs": [
        {
          "address": "0xa757f81cc0309a4ef70e43d221c3292d572b1bb1",
          "topics": [
            "0x9b1a16f5759af462f42475b44346709ff870c61ab291f62b7c81385c22334e03",
            "0x0000000000000000000000007518530d6a9ae910438c036d43eaa83a0424f4b6"
          ],
          "data": "0x0000000000000000000000000000000000000000000000000000000000000020000000000000000000000000000000000000000000000000000000000000001f526567656e65726174697665204661726d696e6720496e697469617469766500",
          "blockHash": "0x3cc8aafc28040a0c3c824a757f37932d09a87cd58501416e80aca0df19c9a665",
          "blockNumber": "0x17b8f092",
          "blockTimestamp": "0x690edb02",
          "transactionHash": "0xf40f451fdc7132de9dbd52d4b817191eda6728f987d98aca19282aba1cace424",
          "transactionIndex": "0x7",
          "logIndex": "0x6",
          "removed": false
        }
      ],
      "logsBloom": "0x00000000000000000000000000000000000000000000000000000000000000000000000000000000000000000000000000000000000000000000000000000000000000000000000000000000000000000000000000000000000000000000000000000000000000000000020000000000000000000000000000000000120000000000002000000000000000000000000000020000000000010000000000000000000000000000000000000000000000000000000000000000000000002000000000000000000000000000000000000000000000080000000000000000000001000000000000000000000000000000000000000000000000000000000000000000",
      "type": "0x2",
      "transactionHash": "0xf40f451fdc7132de9dbd52d4b817191eda6728f987d98aca19282aba1cace424",
      "transactionIndex": "0x7",
      "blockHash": "0x3cc8aafc28040a0c3c824a757f37932d09a87cd58501416e80aca0df19c9a665",
      "blockNumber": "0x17b8f092",
      "gasUsed": "0x31254",
      "effectiveGasPrice": "0x989680",
      "from": "0x9c77c6fafc1eb0821f1de12972ef0199c97c6e45",
      "to": "0xa757f81cc0309a4ef70e43d221c3292d572b1bb1",
      "contractAddress": null,
      "gasUsedForL1": "0x5d7",
      "l1BlockNumber": "0x16a6f86",
      "timeboosted": false
    },
    {
      "status": "0x1",
      "cumulativeGasUsed": "0x618e7",
      "logs": [
        {
          "address": "0xa757f81cc0309a4ef70e43d221c3292d572b1bb1",
          "topics": [
            "0x9b1a16f5759af462f42475b44346709ff870c61ab291f62b7c81385c22334e03",
            "0x00000000000000000000000049fdcb1c1af4566a7ba45fd9732a31b855d819bc"
          ],
          "data": "0x00000000000000000000000000000000000000000000000000000000000000200000000000000000000000000000000000000000000000000000000000000016436f72616c205265656620526573746f726174696f6e00000000000000000000",
          "blockHash": "0x90c33d854579b2a63a764ab8e6964530794557655d27d327f1469c7e654859b5",
          "blockNumber": "0x17b8f09c",
          "blockTimestamp": "0x690edb05",
          "transactionHash": "0x57e392e9f69a82de78a3e4912ae74421aa1a75e15a2966adf37e3c4eccd32488",
          "transactionIndex": "0x3",
          "logIndex": "0x3",
          "removed": false
        }
      ],
      "logsBloom": "0x00000000000000000000000000000000000000000000000000000000000000000000000000000000000000000000000000000000000000000000000000000002000000000000040000000000000000000000000000000000000000000000000000000000000000000000020000000000000000000000000000000000020000000000002000000000000000000000000000000000000000000000000000000000000000000000000000000000000000000000000000000000000200002000000000000000000000000000000000000000000000080000000000000000000001000000000000000000000000000000000000000000000000000000000000000000",
      "type": "0x2",
      "transactionHash": "0x57e392e9f69a82de78a3e4912ae74421aa1a75e15a2966adf37e3c4eccd32488",
      "transactionIndex": "0x3",
      "blockHash": "0x90c33d854579b2a63a764ab8e6964530794557655d27d327f1469c7e654859b5",
      "blockNumber": "0x17b8f09c",
      "gasUsed": "0x31218",
      "effectiveGasPrice": "0x989680",
      "from": "0x9c77c6fafc1eb0821f1de12972ef0199c97c6e45",
      "to": "0xa757f81cc0309a4ef70e43d221c3292d572b1bb1",
      "contractAddress": null,
      "gasUsedForL1": "0x5a7",
      "l1BlockNumber": "0x16a6f86",
      "timeboosted": false
    },
    {
      "status": "0x1",
      "cumulativeGasUsed": "0x103845",
      "logs": [
        {
          "address": "0xa757f81cc0309a4ef70e43d221c3292d572b1bb1",
          "topics": [
            "0x9b1a16f5759af462f42475b44346709ff870c61ab291f62b7c81385c22334e03",
            "0x000000000000000000000000f0ed6bb76ba6ea3716b8d336e34ba9a91065dacd"
          ],
          "data": "0x00000000000000000000000000000000000000000000000000000000000000200000000000000000000000000000000000000000000000000000000000000006466c6f7772610000000000000000000000000000000000000000000000000000",
          "blockHash": "0xd46db86d7c41ac7c4a603b4f898c478047cb46b8a47c2c08c60b75303ab0b6f3",
          "blockNumber": "0x17b8f0a6",
          "blockTimestamp": "0x690edb07",
          "transactionHash": "0xd00068dd3e2263f03d0c723ee16c46b3f66ae3d07f33ef558efce84f54bf8056",
          "transactionIndex": "0x4",
          "logIndex": "0x23",
          "removed": false
        }
      ],
      "logsBloom": "0x00000000000000000000000000040000000000000000000000000000000000000000000000000000000000000000000000000000000000000000000000000000000000000000000000000000000000000000000000000000000000000000000000000000000000000000020000000000000000000000000000000000020000000000002000000000000000000000000000000000000000000000000000000400000000000000000000000000000000000000000000000000000000006000000000000000000000000000000000000000000000080000000000000000000001000000000000000000000000000000000000000000000000000000000000000000",
      "type": "0x2",
      "transactionHash": "0xd00068dd3e2263f03d0c723ee16c46b3f66ae3d07f33ef558efce84f54bf8056",
      "transactionIndex": "0x4",
      "blockHash": "0xd46db86d7c41ac7c4a603b4f898c478047cb46b8a47c2c08c60b75303ab0b6f3",
      "blockNumber": "0x17b8f0a6",
      "gasUsed": "0x31164",
      "effectiveGasPrice": "0x989680",
      "from": "0x9c77c6fafc1eb0821f1de12972ef0199c97c6e45",
      "to": "0xa757f81cc0309a4ef70e43d221c3292d572b1bb1",
      "contractAddress": null,
      "gasUsedForL1": "0x5a7",
      "l1BlockNumber": "0x16a6f86",
      "timeboosted": false
    }
  ],
  "libraries": [],
  "pending": [],
  "returns": {},
  "timestamp": 1762581258,
  "chain": 42161,
  "commit": "e38dcab"
}