{
  "transactions": [
    {
      "hash": "0x41e4a1420e643975a0e7f4684ad8ad16ff26fadce3fb4b5c8d6a57d5cc473a54",
      "transactionType": "CALL",
      "contractName": null,
      "contractAddress": "0x8ba6246d59c8516bb3522ce00fc95a3970b4c2b5",
      "function": "addProject(address,string,string)",
      "arguments": [
        "0xD308833dC6e9366D3C75981D6b1d716e32fFC3a8",
        "Amazon Rainforest Restoration",
        "Reforestation efforts in the Amazon rainforest, Brazil"
      ],
      "transaction": {
        "from": "0x9c77c6fafc1eb0821f1de12972ef0199c97c6e45",
        "to": "0x8ba6246d59c8516bb3522ce00fc95a3970b4c2b5",
        "gas": "0x45925",
        "value": "0x0",
        "input": "0xd596f2b4000000000000000000000000d308833dc6e9366d3c75981d6b1d716e32ffc3a8000000000000000000000000000000000000000000000000000000000000006000000000000000000000000000000000000000000000000000000000000000a0000000000000000000000000000000000000000000000000000000000000001d416d617a6f6e205261696e666f7265737420526573746f726174696f6e00000000000000000000000000000000000000000000000000000000000000000000365265666f726573746174696f6e206566666f72747320696e2074686520416d617a6f6e207261696e666f726573742c204272617a696c00000000000000000000",
        "nonce": "0x4b",
        "chainId": "0xa4b1"
      },
      "additionalContracts": [],
      "isFixedGasLimit": false
    },
    {
      "hash": "0xa19b20e66583fc39f81ea5387c430a3f6f6becee22504bcb497fa91384a2fc7a",
      "transactionType": "CALL",
      "contractName": null,
      "contractAddress": "0x8ba6246d59c8516bb3522ce00fc95a3970b4c2b5",
      "function": "addProject(address,string,string)",
      "arguments": [
        "0xd051B758D8e4554bd89ACcC0288ad3eBA6238682",
        "Ocean Plastic Removal",
        "Ocean cleanup initiatives in the Pacific Ocean"
      ],
      "transaction": {
        "from": "0x9c77c6fafc1eb0821f1de12972ef0199c97c6e45",
        "to": "0x8ba6246d59c8516bb3522ce00fc95a3970b4c2b5",
        "gas": "0x457c1",
        "value": "0x0",
        "input": "0xd596f2b4000000000000000000000000d051b758d8e4554bd89accc0288ad3eba6238682000000000000000000000000000000000000000000000000000000000000006000000000000000000000000000000000000000000000000000000000000000a000000000000000000000000000000000000000000000000000000000000000154f6365616e20506c61737469632052656d6f76616c0000000000000000000000000000000000000000000000000000000000000000000000000000000000002e4f6365616e20636c65616e757020696e69746961746976657320696e207468652050616369666963204f6365616e000000000000000000000000000000000000",
        "nonce": "0x4c",
        "chainId": "0xa4b1"
      },
      "additionalContracts": [],
      "isFixedGasLimit": false
    },
    {
      "hash": "0xe4c62db98849935e57a7fdb59532f0d0a96c39037a24733c15838047e6d481a2",
      "transactionType": "CALL",
      "contractName": null,
      "contractAddress": "0x8ba6246d59c8516bb3522ce00fc95a3970b4c2b5",
      "function": "addProject(address,string,string)",
      "arguments": [
        "0x15DFE880601a031Ea12B4F63400B36AA50D64993",
        "Solar Power for Villages",
        "Renewable energy projects in rural Kenya"
      ],
      "transaction": {
        "from": "0x9c77c6fafc1eb0821f1de12972ef0199c97c6e45",
        "to": "0x8ba6246d59c8516bb3522ce00fc95a3970b4c2b5",
        "gas": "0x457f6",
        "value": "0x0",
        "input": "0xd596f2b400000000000000000000000015dfe880601a031ea12b4f63400b36aa50d64993000000000000000000000000000000000000000000000000000000000000006000000000000000000000000000000000000000000000000000000000000000a00000000000000000000000000000000000000000000000000000000000000018536f6c617220506f77657220666f722056696c6c616765730000000000000000000000000000000000000000000000000000000000000000000000000000002852656e657761626c6520656e657267792070726f6a6563747320696e20727572616c204b656e7961000000000000000000000000000000000000000000000000",
        "nonce": "0x4d",
        "chainId": "0xa4b1"
      },
      "additionalContracts": [],
      "isFixedGasLimit": false
    },
    {
      "hash": "0x1a10bc85dab27410d05fcab633036ac0883d6d3da10464dd36d0223f9dd5a9d7",
      "transactionType": "CALL",
      "contractName": null,
      "contractAddress": "0x8ba6246d59c8516bb3522ce00fc95a3970b4c2b5",
      "function": "addProject(address,string,string)",
      "arguments": [
        "0x7518530d6a9ae910438C036d43EaA83A0424f4B6",
        "Regenerative Farming Initiative",
        "Sustainable agriculture programs in India"
      ],
      "transaction": {
        "from": "0x9c77c6fafc1eb0821f1de12972ef0199c97c6e45",
        "to": "0x8ba6246d59c8516bb3522ce00fc95a3970b4c2b5",
        "gas": "0x45853",
        "value": "0x0",
        "input": "0xd596f2b40000000000000000000000007518530d6a9ae910438c036d43eaa83a0424f4b6000000000000000000000000000000000000000000000000000000000000006000000000000000000000000000000000000000000000000000000000000000a0000000000000000000000000000000000000000000000000000000000000001f526567656e65726174697665204661726d696e6720496e69746961746976650000000000000000000000000000000000000000000000000000000000000000295375737461696e61626c65206167726963756c747572652070726f6772616d7320696e20496e6469610000000000000000000000000000000000000000000000",
        "nonce": "0x4e",
        "chainId": "0xa4b1"
      },
      "additionalContracts": [],
      "isFixedGasLimit": false
    },
    {
      "hash": "0x0b9de2df2c93c45af03008ba0263bc02701d4e377193c00c490d243c74598472",
      "transactionType": "CALL",
      "contractName": null,
      "contractAddress": "0x8ba6246d59c8516bb3522ce00fc95a3970b4c2b5",
      "function": "addProject(address,string,string)",
      "arguments": [
        "0x49FdCb1c1af4566A7bA45Fd9732A31B855D819bC",
        "Coral Reef Restoration",
        "Coral reef conservation in the Great Barrier Reef"
      ],
      "transaction": {
        "from": "0x9c77c6fafc1eb0821f1de12972ef0199c97c6e45",
        "to": "0x8ba6246d59c8516bb3522ce00fc95a3970b4c2b5",
        "gas": "0x45812",
        "value": "0x0",
        "input": "0xd596f2b400000000000000000000000049fdcb1c1af4566a7ba45fd9732a31b855d819bc000000000000000000000000000000000000000000000000000000000000006000000000000000000000000000000000000000000000000000000000000000a00000000000000000000000000000000000000000000000000000000000000016436f72616c205265656620526573746f726174696f6e000000000000000000000000000000000000000000000000000000000000000000000000000000000031436f72616c207265656620636f6e736572766174696f6e20696e2074686520477265617420426172726965722052656566000000000000000000000000000000",
        "nonce": "0x4f",
        "chainId": "0xa4b1"
      },
      "additionalContracts": [],
      "isFixedGasLimit": false
    },
    {
      "hash": "0x36644ecd239415e530ab08bb8b7a9a318e3997c39f5d02b99aa08223818a4758",
      "transactionType": "CALL",
      "contractName": null,
      "contractAddress": "0x8ba6246d59c8516bb3522ce00fc95a3970b4c2b5",
      "function": "addProject(address,string,string)",
      "arguments": [
        "0xF0ed6Bb76ba6eA3716B8D336e34Ba9A91065dAcd",
        "Flowra",
        "Open source DeFi protocol for public goods funding"
      ],
      "transaction": {
        "from": "0x9c77c6fafc1eb0821f1de12972ef0199c97c6e45",
        "to": "0x8ba6246d59c8516bb3522ce00fc95a3970b4c2b5",
        "gas": "0x456ef",
        "value": "0x0",
        "input": "0xd596f2b4000000000000000000000000f0ed6bb76ba6ea3716b8d336e34ba9a91065dacd000000000000000000000000000000000000000000000000000000000000006000000000000000000000000000000000000000000000000000000000000000a00000000000000000000000000000000000000000000000000000000000000006466c6f777261000000000000000000000000000000000000000000000000000000000000000000000000000000000000000000000000000000000000000000324f70656e20736f7572636520446546692070726f746f636f6c20666f72207075626c696320676f6f64732066756e64696e670000000000000000000000000000",
        "nonce": "0x50",
        "chainId": "0xa4b1"
      },
      "additionalContracts": [],
      "isFixedGasLimit": false
    }
  ],
  "receipts": [
    {
      "status": "0x1",
      "cumulativeGasUsed": "0x18f160",
      "logs": [
        {
          "address": "0x8ba6246d59c8516bb3522ce00fc95a3970b4c2b5",
          "topics": [
            "0x9b1a16f5759af462f42475b44346709ff870c61ab291f62b7c81385c22334e03",
            "0x000000000000000000000000d308833dc6e9366d3c75981d6b1d716e32ffc3a8"
          ],
          "data": "0x0000000000000000000000000000000000000000000000000000000000000020000000000000000000000000000000000000000000000000000000000000001d416d617a6f6e205261696e666f7265737420526573746f726174696f6e000000",
          "blockHash": "0x3af847ab8fbd099939cdb7d80c0da3ed4fe67a55eb8f66e03e64fe42d4dc1e43",
          "blockNumber": "0x17bb546c",
          "blockTimestamp": "0x690f73b9",
          "transactionHash": "0x41e4a1420e643975a0e7f4684ad8ad16ff26fadce3fb4b5c8d6a57d5cc473a54",
          "transactionIndex": "0xa",
          "logIndex": "0x28",
          "removed": false
        }
      ],
      "logsBloom": "0x00000000000000000000000000000000000000000000000000000000000000000000100000000000000000000000000000000000000000000000000000000000000000000000040000000000000000000004000000000000000000000000000000000000000000000000020000000000000000000000000000000000000000000000002000000000000000000000000000000000000000000000000000000000000000000000000080000000000000000000000000000000000000000000000000000000000000000000000000000000000000080000000000002000000000000000000000000000000000000000000000000000000000000000400000000000",
      "type": "0x2",
      "transactionHash": "0x41e4a1420e643975a0e7f4684ad8ad16ff26fadce3fb4b5c8d6a57d5cc473a54",
      "transactionIndex": "0xa",
      "blockHash": "0x3af847ab8fbd099939cdb7d80c0da3ed4fe67a55eb8f66e03e64fe42d4dc1e43",
      "blockNumber": "0x17bb546c",
      "gasUsed": "0x34a99",
      "effectiveGasPrice": "0xbea0c8",
      "from": "0x9c77c6fafc1eb0821f1de12972ef0199c97c6e45",
      "to": "0x8ba6246d59c8516bb3522ce00fc95a3970b4c2b5",
      "contractAddress": null,
      "gasUsedForL1": "0x610",
      "l1BlockNumber": "0x16a7c2a",
      "timeboosted": false
    },
    {
      "status": "0x1",
      "cumulativeGasUsed": "0x25d3bd",
      "logs": [
        {
          "address": "0x8ba6246d59c8516bb3522ce00fc95a3970b4c2b5",
          "topics": [
            "0x9b1a16f5759af462f42475b44346709ff870c61ab291f62b7c81385c22334e03",
            "0x000000000000000000000000d051b758d8e4554bd89accc0288ad3eba6238682"
          ],
          "data": "0x000000000000000000000000000000000000000000000000000000000000002000000000000000000000000000000000000000000000000000000000000000154f6365616e20506c61737469632052656d6f76616c0000000000000000000000",
          "blockHash": "0x7edd190d4948aabe01f1766833feac56d552e8024844e5e22e335a865c76b23a",
          "blockNumber": "0x17bb5476",
          "blockTimestamp": "0x690f73bc",
          "transactionHash": "0xa19b20e66583fc39f81ea5387c430a3f6f6becee22504bcb497fa91384a2fc7a",
          "transactionIndex": "0xc",
          "logIndex": "0xe",
          "removed": false
        }
      ],
      "logsBloom": "0x00000000000000000000000000000000000000000000000000000000000002000000100000000000000000000000000000000000000000000000000000000000000000000000000100000000000000000000000000000000000000000000000000000000000000000000020000000000000000000000000000000000000000000000002000000000000000000000000000000000000000000000000000000000000000000000000080000000000000000000000000000000000000000000000000000000000000000000000000000000000000080000000000000000000000000000000000000000000000001000000000000000000000000000400000000000",
      "type": "0x2",
      "transactionHash": "0xa19b20e66583fc39f81ea5387c430a3f6f6becee22504bcb497fa91384a2fc7a",
      "transactionIndex": "0xc",
      "blockHash": "0x7edd190d4948aabe01f1766833feac56d552e8024844e5e22e335a865c76b23a",
      "blockNumber": "0x17bb5476",
      "gasUsed": "0x31241",
      "effectiveGasPrice": "0xbe4308",
      "from": "0x9c77c6fafc1eb0821f1de12972ef0199c97c6e45",
      "to": "0x8ba6246d59c8516bb3522ce00fc95a3970b4c2b5",
      "contractAddress": null,
      "gasUsedForL1": "0x600",
      "l1BlockNumber": "0x16a7c2a",
      "timeboosted": false
    },
    {
      "status": "0x1",
      "cumulativeGasUsed": "0x3cb37b",
      "logs": [
        {
          "address": "0x8ba6246d59c8516bb3522ce00fc95a3970b4c2b5",
          "topics": [
            "0x9b1a16f5759af462f42475b44346709ff870c61ab291f62b7c81385c22334e03",
            "0x00000000000000000000000015dfe880601a031ea12b4f63400b36aa50d64993"
          ],
          "data": "0x00000000000000000000000000000000000000000000000000000000000000200000000000000000000000000000000000000000000000000000000000000018536f6c617220506f77657220666f722056696c6c616765730000000000000000",
          "blockHash": "0x5002dabeef5b6bf9b131386ee065466a620384ae8d714e0d81c89a50905b2700",
          "blockNumber": "0x17bb5480",
          "blockTimestamp": "0x690f73be",
          "transactionHash": "0xe4c62db98849935e57a7fdb59532f0d0a96c39037a24733c15838047e6d481a2",
          "transactionIndex": "0x9",
          "logIndex": "0x22",
          "removed": false
        }
      ],
      "logsBloom": "0x000000000000000000000000000001000000000000000000000000000000000000001000000000000000000000000000000000000000000000000000000000000000000000000000000000000000000000000000000000000000000000000000000000000000000000000200000000000000000000000000000000000000000000000020000000000000000000000000000000000000000000000000000000000000000000000000c0000000000000000000000000001000000000000000000000000000000000000000000000000000000000080000000000000000000000000000000000000000000000000000000000000000000000000000400000000000",
      "type": "0x2",
      "transactionHash": "0xe4c62db98849935e57a7fdb59532f0d0a96c39037a24733c15838047e6d481a2",
      "transactionIndex": "0x9",
      "blockHash": "0x5002dabeef5b6bf9b131386ee065466a620384ae8d714e0d81c89a50905b2700",
      "blockNumber": "0x17bb5480",
      "gasUsed": "0x3120a",
      "effectiveGasPrice": "0xbeb838",
      "from": "0x9c77c6fafc1eb0821f1de12972ef0199c97c6e45",
      "to": "0x8ba6246d59c8516bb3522ce00fc95a3970b4c2b5",
      "contractAddress": null,
      "gasUsedForL1": "0x5ed",
      "l1BlockNumber": "0x16a7c2a",
      "timeboosted": false
    },
    {
      "status": "0x1",
      "cumulativeGasUsed": "0x3a648",
      "logs": [
        {
          "address": "0x8ba6246d59c8516bb3522ce00fc95a3970b4c2b5",
          "topics": [
            "0x9b1a16f5759af462f42475b44346709ff870c61ab291f62b7c81385c22334e03",
            "0x0000000000000000000000007518530d6a9ae910438c036d43eaa83a0424f4b6"
          ],
          "data": "0x0000000000000000000000000000000000000000000000000000000000000020000000000000000000000000000000000000000000000000000000000000001f526567656e65726174697665204661726d696e6720496e697469617469766500",
          "blockHash": "0x466a705cc1184b8748a2836387cc114231d2519671b6f0588c54139d03e37cb4",
          "blockNumber": "0x17bb548b",
          "blockTimestamp": "0x690f73c1",
          "transactionHash": "0x1a10bc85dab27410d05fcab633036ac0883d6d3da10464dd36d0223f9dd5a9d7",
          "transactionIndex": "0x2",
          "logIndex": "0x0",
          "removed": false
        }
      ],
      "logsBloom": "0x00000000000000000000000000000000000000000000000000000000000000000000100000000000000000000000000000000000000000000000000000000000000000000000000000000000000000000000000000000000000000000000000000000000000000000000020000000000000000000000000000000000100000000000002000000000000000000000000000020000000000010000000000000000000000000000000080000000000000000000000000000000000000000000000000000000000000000000000000000000000000080000000000000000000000000000000000000000000000000000000000000000000000000000400000000000",
      "type": "0x2",
      "transactionHash": "0x1a10bc85dab27410d05fcab633036ac0883d6d3da10464dd36d0223f9dd5a9d7",
      "transactionIndex": "0x2",
      "blockHash": "0x466a705cc1184b8748a2836387cc114231d2519671b6f0588c54139d03e37cb4",
      "blockNumber": "0x17bb548b",
      "gasUsed": "0x31273",
      "effectiveGasPrice": "0xbe4308",
      "from": "0x9c77c6fafc1eb0821f1de12972ef0199c97c6e45",
      "to": "0x8ba6246d59c8516bb3522ce00fc95a3970b4c2b5",
      "contractAddress": null,
      "gasUsedForL1": "0x5f6",
      "l1BlockNumber": "0x16a7c2a",
      "timeboosted": false
    },
    {
      "status": "0x1",
      "cumulativeGasUsed": "0x7d732",
      "logs": [
        {
          "address": "0x8ba6246d59c8516bb3522ce00fc95a3970b4c2b5",
          "topics": [
            "0x9b1a16f5759af462f42475b44346709ff870c61ab291f62b7c81385c22334e03",
            "0x00000000000000000000000049fdcb1c1af4566a7ba45fd9732a31b855d819bc"
          ],
          "data": "0x00000000000000000000000000000000000000000000000000000000000000200000000000000000000000000000000000000000000000000000000000000016436f72616c205265656620526573746f726174696f6e00000000000000000000",
          "blockHash": "0x59b8880446f0a2fda705e5f992e292554385c03bb345c6ca7fdebda6e3bf9643",
          "blockNumber": "0x17bb5495",
          "blockTimestamp": "0x690f73c3",
          "transactionHash": "0x0b9de2df2c93c45af03008ba0263bc02701d4e377193c00c490d243c74598472",
          "transactionIndex": "0x6",
          "logIndex": "0x1",
          "removed": false
        }
      ],
      "logsBloom": "0x00000000000000000000000000000000000000000000000000000000000000000000100000000000000000000000000000000000000000000000000000000002000000000000040000000000000000000000000000000000000000000000000000000000000000000000020000000000000000000000000000000000000000000000002000000000000000000000000000000000000000000000000000000000000000000000000080000000000000000000000000000000000200000000000000000000000000000000000000000000000000080000000000000000000000000000000000000000000000000000000000000000000000000000400000000000",
      "type": "0x2",
      "transactionHash": "0x0b9de2df2c93c45af03008ba0263bc02701d4e377193c00c490d243c74598472",
      "transactionIndex": "0x6",
      "blockHash": "0x59b8880446f0a2fda705e5f992e292554385c03bb345c6ca7fdebda6e3bf9643",
      "blockNumber": "0x17bb5495",
      "gasUsed": "0x3127e",
      "effectiveGasPrice": "0xbd4138",
      "from": "0x9c77c6fafc1eb0821f1de12972ef0199c97c6e45",
      "to": "0x8ba6246d59c8516bb3522ce00fc95a3970b4c2b5",
      "contractAddress": null,
      "gasUsedForL1": "0x60d",
      "l1BlockNumber": "0x16a7c2a",
      "timeboosted": false
    },
    {
      "status": "0x1",
      "cumulativeGasUsed": "0x311ce",
      "logs": [
        {
          "address": "0x8ba6246d59c8516bb3522ce00fc95a3970b4c2b5",
          "topics": [
            "0x9b1a16f5759af462f42475b44346709ff870c61ab291f62b7c81385c22334e03",
            "0x000000000000000000000000f0ed6bb76ba6ea3716b8d336e34ba9a91065dacd"
          ],
          "data": "0x00000000000000000000000000000000000000000000000000000000000000200000000000000000000000000000000000000000000000000000000000000006466c6f7772610000000000000000000000000000000000000000000000000000",
          "blockHash": "0x545ce3d11e9f14b6dd00094afc65dce0195ed8db29253ac9cc53848e97907f4e",
          "blockNumber": "0x17bb54a0",
          "blockTimestamp": "0x690f73c6",
          "transactionHash": "0x36644ecd239415e530ab08bb8b7a9a318e3997c39f5d02b99aa08223818a4758",
          "transactionIndex": "0x1",
          "logIndex": "0x0",
          "removed": false
        }
      ],
      "logsBloom": "0x00000000000000000000000000040000000000000000000000000000000000000000100000000000000000000000000000000000000000000000000000000000000000000000000000000000000000000000000000000000000000000000000000000000000000000000020000000000000000000000000000000000000000000000002000000000000000000000000000000000000000000000000000000400000000000000000080000000000000000000000000000000000000004000000000000000000000000000000000000000000000080000000000000000000000000000000000000000000000000000000000000000000000000000400000000000",
      "type": "0x2",
      "transactionHash": "0x36644ecd239415e530ab08bb8b7a9a318e3997c39f5d02b99aa08223818a4758",
      "transactionIndex": "0x1",
      "blockHash": "0x545ce3d11e9f14b6dd00094afc65dce0195ed8db29253ac9cc53848e97907f4e",
      "blockNumber": "0x17bb54a0",
      "gasUsed": "0x311ce",
      "effectiveGasPrice": "0xb93228",
      "from": "0x9c77c6fafc1eb0821f1de12972ef0199c97c6e45",
      "to": "0x8ba6246d59c8516bb3522ce00fc95a3970b4c2b5",
      "contractAddress": null,
      "gasUsedForL1": "0x611",
      "l1BlockNumber": "0x16a7c2a",
      "timeboosted": false
    }
  ],
  "libraries": [],
  "pending": [],
  "returns": {},
  "timestamp": 1762620360,
  "chain": 42161,
  "commit": "b7bf394"
}