{
  "transactions": [
    {
      "hash": "0x5dce8a3e59eef607706626b12e00f9ce97444d349f5a5cef519eb945a0786576",
      "transactionType": "CALL",
      "contractName": null,
      "contractAddress": "0x640cf504976e2ccc0a38806e5a0c6b910308f0cb",
      "function": "grantRole(bytes32,address)",
      "arguments": [
        "0xd8aa0f3194971a2a116679f7c2090f6939c8d4e01a2a8d7e41d55e5351469e63",
        "0xcce721fC201D4571A5AC826A3e0908F81807fAa5"
      ],
      "transaction": {
        "from": "0x9c77c6fafc1eb0821f1de12972ef0199c97c6e45",
        "to": "0x640cf504976e2ccc0a38806e5a0c6b910308f0cb",
        "gas": "0x11065",
        "value": "0x0",
        "input": "0x2f2ff15dd8aa0f3194971a2a116679f7c2090f6939c8d4e01a2a8d7e41d55e5351469e63000000000000000000000000cce721fc201d4571a5ac826a3e0908f81807faa5",
        "nonce": "0x32",
        "chainId": "0xa4b1"
      },
      "additionalContracts": [],
      "isFixedGasLimit": false
    }
  ],
  "receipts": [
    {
      "status": "0x1",
      "cumulativeGasUsed": "0xcd31",
      "logs": [
        {
          "address": "0x640cf504976e2ccc0a38806e5a0c6b910308f0cb",
          "topics": [
            "0x2f8788117e7eff1d82e926ec794901d17c78024a50270940304540a733656f0d",
            "0xd8aa0f3194971a2a116679f7c2090f6939c8d4e01a2a8d7e41d55e5351469e63",
            "0x000000000000000000000000cce721fc201d4571a5ac826a3e0908f81807faa5",
            "0x0000000000000000000000009c77c6fafc1eb0821f1de12972ef0199c97c6e45"
          ],
          "data": "0x",
          "blockHash": "0xedc5e99e5eb20ff93d7b92f4c94ab0704d80ecf6852e1a565f64c151d294697b",
          "blockNumber": "0x17bb0c9c",
          "blockTimestamp": "0x690f61d0",
          "transactionHash": "0x5dce8a3e59eef607706626b12e00f9ce97444d349f5a5cef519eb945a0786576",
          "transactionIndex": "0x1",
          "logIndex": "0x0",
          "removed": false
        }
      ],
      "logsBloom": "0x00000004000000000000000000000000000000000000000000000000000000000000000000000000000000000001000000000000000000000200000010000000100000000000000000000000000000000000000000000000000000000000000000010000000000000200000000000000000000000000000000000000000000000000000000000000000080000000000080000000000000000000000000000000000000000000000000000000000000000000000000200040001000080000000000000000000000000000000100000000000000000000000100000000000000000000000000000000000000000000000000000000000000000000000000000000",
      "type": "0x2",
      "transactionHash": "0x5dce8a3e59eef607706626b12e00f9ce97444d349f5a5cef519eb945a0786576",
      "transactionIndex": "0x1",
      "blockHash": "0xedc5e99e5eb20ff93d7b92f4c94ab0704d80ecf6852e1a565f64c151d294697b",
      "blockNumber": "0x17bb0c9c",
      "gasUsed": "0xcd31",
      "effectiveGasPrice": "0x989680",
      "from": "0x9c77c6fafc1eb0821f1de12972ef0199c97c6e45",
      "to": "0x640cf504976e2ccc0a38806e5a0c6b910308f0cb",
      "contractAddress": null,
      "gasUsedForL1": "0x50d",
      "l1BlockNumber": "0x16a7aab",
      "timeboosted": false
    }
  ],
  "libraries": [],
  "pending": [],
  "returns": {},
  "timestamp": 1762615762,
  "chain": 42161,
  "commit": "99a6308"
}