{
  "transactions": [
    {
      "hash": "0xad50c714c631e96dadbbb88a25c66bef4c59978b66e82bf98cb4e8e24bf531a0",
      "transactionType": "CALL",
      "contractName": null,
      "contractAddress": "0xb2f2600792605fb04a7eb0cfcad6dffdf5330b14",
      "function": "grantRole(bytes32,address)",
      "arguments": [
        "0xd8aa0f3194971a2a116679f7c2090f6939c8d4e01a2a8d7e41d55e5351469e63",
        "0xcce721fC201D4571A5AC826A3e0908F81807fAa5"
      ],
      "transaction": {
        "from": "0x9c77c6fafc1eb0821f1de12972ef0199c97c6e45",
        "to": "0xb2f2600792605fb04a7eb0cfcad6dffdf5330b14",
        "gas": "0x10e67",
        "value": "0x0",
        "input": "0x2f2ff15dd8aa0f3194971a2a116679f7c2090f6939c8d4e01a2a8d7e41d55e5351469e63000000000000000000000000cce721fc201d4571a5ac826a3e0908f81807faa5",
        "nonce": "0x4a",
        "chainId": "0xa4b1"
      },
      "additionalContracts": [],
      "isFixedGasLimit": false
    }
  ],
  "receipts": [
    {
      "status": "0x1",
      "cumulativeGasUsed": "0xcb90",
      "logs": [
        {
          "address": "0xb2f2600792605fb04a7eb0cfcad6dffdf5330b14",
          "topics": [
            "0x2f8788117e7eff1d82e926ec794901d17c78024a50270940304540a733656f0d",
            "0xd8aa0f3194971a2a116679f7c2090f6939c8d4e01a2a8d7e41d55e5351469e63",
            "0x000000000000000000000000cce721fc201d4571a5ac826a3e0908f81807faa5",
            "0x0000000000000000000000009c77c6fafc1eb0821f1de12972ef0199c97c6e45"
          ],
          "data": "0x",
          "blockHash": "0xa1148fc0ba9bc758905783365622d8d7708c8a5caac4952679581c433635d9ec",
          "blockNumber": "0x17bb5424",
          "blockTimestamp": "0x690f73a7",
          "transactionHash": "0xad50c714c631e96dadbbb88a25c66bef4c59978b66e82bf98cb4e8e24bf531a0",
          "transactionIndex": "0x1",
          "logIndex": "0x0",
          "removed": false
        }
      ],
      "logsBloom": "0x00000004000000000000000000000000000000000000000000000000000000000000000000000000000000000001000000000000000000000200000010000000000000000000000000000000000000000000000000000000000000000000000000010000000000000200000000000000000000000000000000000000000000000000000000000000000080000000000080000000000000000000000000000000000000000000000000000000000000000000000000000040001001080000000100000000000000000000000000000000000000000000000100800000000000000000000000000000000000000000000000000000000000000000000000000000",
      "type": "0x2",
      "transactionHash": "0xad50c714c631e96dadbbb88a25c66bef4c59978b66e82bf98cb4e8e24bf531a0",
      "transactionIndex": "0x1",
      "blockHash": "0xa1148fc0ba9bc758905783365622d8d7708c8a5caac4952679581c433635d9ec",
      "blockNumber": "0x17bb5424",
      "gasUsed": "0xcb90",
      "effectiveGasPrice": "0xc0bfc0",
      "from": "0x9c77c6fafc1eb0821f1de12972ef0199c97c6e45",
      "to": "0xb2f2600792605fb04a7eb0cfcad6dffdf5330b14",
      "contractAddress": null,
      "gasUsedForL1": "0x36c",
      "l1BlockNumber": "0x16a7c28",
      "timeboosted": false
    }
  ],
  "libraries": [],
  "pending": [],
  "returns": {},
  "timestamp": 1762620329,
  "chain": 42161,
  "commit": "b7bf394"
}