{
  "transactions": [
    {
      "hash": "0x6200e9122fc8fccfffeca0e29ab7cf9c3db8b735f83facb4ec7d665f35a5ffb3",
      "transactionType": "CALL",
      "contractName": null,
      "contractAddress": "0xdf236b1f3714cddfc028c4b7e52a7b4c7dbe33f5",
      "function": "setPoolKey(bytes32)",
      "arguments": [
        "0x864abca0a6202dba5b8868772308da953ff125b0f95015adbf89aaf579e903a8"
      ],
      "transaction": {
        "from": "0x9c77c6fafc1eb0821f1de12972ef0199c97c6e45",
        "to": "0xdf236b1f3714cddfc028c4b7e52a7b4c7dbe33f5",
        "gas": "0xf138",
        "value": "0x0",
        "input": "0x8bbd91ec864abca0a6202dba5b8868772308da953ff125b0f95015adbf89aaf579e903a8",
        "nonce": "0x27",
        "chainId": "0xa4b1"
      },
      "additionalContracts": [],
      "isFixedGasLimit": false
    }
  ],
  "receipts": [
    {
      "status": "0x1",
      "cumulativeGasUsed": "0xb725",
      "logs": [],
      "logsBloom": "0x00000000000000000000000000000000000000000000000000000000000000000000000000000000000000000000000000000000000000000000000000000000000000000000000000000000000000000000000000000000000000000000000000000000000000000000000000000000000000000000000000000000000000000000000000000000000000000000000000000000000000000000000000000000000000000000000000000000000000000000000000000000000000000000000000000000000000000000000000000000000000000000000000000000000000000000000000000000000000000000000000000000000000000000000000000000",
      "type": "0x2",
      "transactionHash": "0x6200e9122fc8fccfffeca0e29ab7cf9c3db8b735f83facb4ec7d665f35a5ffb3",
      "transactionIndex": "0x1",
      "blockHash": "0x845d3a8704934f9b7fd46c2354b035d707130408e70ff19f090e4ad5517c73d4",
      "blockNumber": "0x17b94763",
      "gasUsed": "0xb725",
      "effectiveGasPrice": "0xa03f70",
      "from": "0x9c77c6fafc1eb0821f1de12972ef0199c97c6e45",
      "to": "0xdf236b1f3714cddfc028c4b7e52a7b4c7dbe33f5",
      "contractAddress": null,
      "gasUsedForL1": "0x29b",
      "l1BlockNumber": "0x16a7151",
      "timeboosted": false
    }
  ],
  "libraries": [],
  "pending": [],
  "returns": {},
  "timestamp": 1762586798,
  "chain": 42161,
  "commit": "6b12dea"
}