{
  "transactions": [
    {
      "hash": "0x5f13ba9e7b358ec05ccb947fabdf02fe2058cb81e002b2e3266ebf9df292bce4",
      "transactionType": "CALL",
      "contractName": null,
      "contractAddress": "0xb2f2600792605fb04a7eb0cfcad6dffdf5330b14",
      "function": "setPoolKey((address,address,uint24,int24,address))",
      "arguments": [
        "(0xaf88d065e77c8cC2239327C5EDb3A432268e5831, 0x82aF49447D8a07e3bd95BD0d56f35241523fBab1, 3000, 60, 0x1c95Da298E99Fb478C30823afA7b59A0Ff7b99DF)"
      ],
      "transaction": {
        "from": "0x9c77c6fafc1eb0821f1de12972ef0199c97c6e45",
        "to": "0xb2f2600792605fb04a7eb0cfcad6dffdf5330b14",
        "gas": "0x1f4cc",
        "value": "0x0",
        "input": "0xf0ec98d7000000000000000000000000af88d065e77c8cc2239327c5edb3a432268e583100000000000000000000000082af49447d8a07e3bd95bd0d56f35241523fbab10000000000000000000000000000000000000000000000000000000000000bb8000000000000000000000000000000000000000000000000000000000000003c0000000000000000000000001c95da298e99fb478c30823afa7b59a0ff7b99df",
        "nonce": "0x55",
        "chainId": "0xa4b1"
      },
      "additionalContracts": [],
      "isFixedGasLimit": false
    },
    {
      "hash": "0x487723c4827bc0b56a41c3aacaea1e9ab36d8f90df8ff648bdbd3b7d063a85ed",
      "transactionType": "CALL",
      "contractName": null,
      "contractAddress": "0x1c95da298e99fb478c30823afa7b59a0ff7b99df",
      "function": "setPoolKey(bytes32)",
      "arguments": [
        "0x864abca0a6202dba5b8868772308da953ff125b0f95015adbf89aaf579e903a8"
      ],
      "transaction": {
        "from": "0x9c77c6fafc1eb0821f1de12972ef0199c97c6e45",
        "to": "0x1c95da298e99fb478c30823afa7b59a0ff7b99df",
        "gas": "0xf220",
        "value": "0x0",
        "input": "0x8bbd91ec864abca0a6202dba5b8868772308da953ff125b0f95015adbf89aaf579e903a8",
        "nonce": "0x56",
        "chainId": "0xa4b1"
      },
      "additionalContracts": [],
      "isFixedGasLimit": false
    }
  ],
  "receipts": [
    {
      "status": "0x1",
      "cumulativeGasUsed": "0x2a7ce",
      "logs": [
        {
          "address": "0xb2f2600792605fb04a7eb0cfcad6dffdf5330b14",
          "topics": [
            "0x0bddc55e4a81f71542b94cc2da723eeaede1fb71af1a712aba6afcf585463a41",
            "0x000000000000000000000000af88d065e77c8cc2239327c5edb3a432268e5831",
            "0x00000000000000000000000082af49447d8a07e3bd95bd0d56f35241523fbab1",
            "0x0000000000000000000000001c95da298e99fb478c30823afa7b59a0ff7b99df"
          ],
          "data": "0x0000000000000000000000000000000000000000000000000000000000000bb8000000000000000000000000000000000000000000000000000000000000003c",
          "blockHash": "0x13e95afe090a0334cce2dc7fcd5b887d67d5e484ee214f642d80197b1df040a7",
          "blockNumber": "0x17bb55c2",
          "blockTimestamp": "0x690f740f",
          "transactionHash": "0x5f13ba9e7b358ec05ccb947fabdf02fe2058cb81e002b2e3266ebf9df292bce4",
          "transactionIndex": "0x3",
          "logIndex": "0x0",
          "removed": false
        }
      ],
      "logsBloom": "0x00000000000000000000000000000000000000000000000000000000000000000000000000000000100000000800000000000000000008000000000000000000000000000000000000000000000000010000000000000000000020000000000000000000000000000000000000000000000000000000400000000000000000000000000000000000000000000000000000000000010000000000000000000000000000000000000000000000000000000000000000000000000001000400000100000000000000000000000000000000000000000000000000800000000000000000000000010000020000000000000000000000002000800000000000000000",
      "type": "0x2",
      "transactionHash": "0x5f13ba9e7b358ec05ccb947fabdf02fe2058cb81e002b2e3266ebf9df292bce4",
      "transactionIndex": "0x3",
      "blockHash": "0x13e95afe090a0334cce2dc7fcd5b887d67d5e484ee214f642d80197b1df040a7",
      "blockNumber": "0x17bb55c2",
      "gasUsed": "0x17b92",
      "effectiveGasPrice": "0xb65b98",
      "from": "0x9c77c6fafc1eb0821f1de12972ef0199c97c6e45",
      "to": "0xb2f2600792605fb04a7eb0cfcad6dffdf5330b14",
      "contractAddress": null,
      "gasUsedForL1": "0x58f",
      "l1BlockNumber": "0x16a7c30",
      "timeboosted": false
    },
    {
      "status": "0x1",
      "cumulativeGasUsed": "0x67845b",
      "logs": [],
      "logsBloom": "0x00000000000000000000000000000000000000000000000000000000000000000000000000000000000000000000000000000000000000000000000000000000000000000000000000000000000000000000000000000000000000000000000000000000000000000000000000000000000000000000000000000000000000000000000000000000000000000000000000000000000000000000000000000000000000000000000000000000000000000000000000000000000000000000000000000000000000000000000000000000000000000000000000000000000000000000000000000000000000000000000000000000000000000000000000000000",
      "type": "0x2",
      "transactionHash": "0x487723c4827bc0b56a41c3aacaea1e9ab36d8f90df8ff648bdbd3b7d063a85ed",
      "transactionIndex": "0xe",
      "blockHash": "0x159b3cbde8fde997ac43336fe963619d01a88b0b47d9f6a280329ef6c4dcfd28",
      "blockNumber": "0x17bb55cc",
      "gasUsed": "0xb77d",
      "effectiveGasPrice": "0xb5afb8",
      "from": "0x9c77c6fafc1eb0821f1de12972ef0199c97c6e45",
      "to": "0x1c95da298e99fb478c30823afa7b59a0ff7b99df",
      "contractAddress": null,
      "gasUsedForL1": "0x2f3",
      "l1BlockNumber": "0x16a7c30",
      "timeboosted": false
    }
  ],
  "libraries": [],
  "pending": [],
  "returns": {},
  "timestamp": 1762620435,
  "chain": 42161,
  "commit": "b7bf394"
}